:100000002EC100004DC100004BC100000C940E3306
:1000100047C100000C94211D0C945E1C41C10000DE
:100020003FC1000024C700003BC10000FDC5000027
:1000300037C1000035C100000C944B1431C10000E1
:100040002FC100000C94722E2BC1000029C10000AA
:1000500027C1000025C1000023C100000C94E30C5F
:100060001FC100001BC200001BC1000019C100001D
:1000700017C100000C94CE2A13C1000011C100006A
:100080000C94760A0DC100000BC1000009C10000EC
:1000900087C2000005C1000003C1000001C10000CB
:1000A000FFC00000FDC0000041C50000F9C0000015
:1000B000F7C00000F5C00000F3C00000F1C0000070
:1000C000EFC00000EDC00000EBC00000A1C20000C6
:1000D000E7C00000E5C00000D6C20000E1C000009B
:1000E000DFC000009F0AA70AB60AC50A380B470BF3
:1000F000560BC80BD70BE60BBF16BB16B616B216BF
:10010000AD16A816A4169F169A16961691168C165A
:10011000881683167E167A16751670166C16671674
:1001200062165E165916541650164B16461642168F
:100130003D16381634162F162A16261621161C16AA
:10014000181613160E160A1605160016FC15F715C6
:10015000F215EE15E915E415DD15D615CF15C81500
:10016000C115BA15B315AC15A5159E1597159015A3
:10017000891582157B1574156D1566155F15581553
:1001800051154A1543153C1535152E152715201503
:10019000191512150B150415FD14F614EF14E814B7
:1001A000E114DA14D314CC14C514BE14B714B0146B
:1001B000A914A2149B1494148D1486147F1478141B
:1001C00071143218351838183B183E184118441865
:1001D00047184A184D18EB1E241F531F821FBB1FC0
:1001E000F21F2E202E202E202E202E202E202E20DC
:1001F0002E202E202E202E202E202E202E202E208F
:100200002E202E202E202E202E202E202E202E207E
:100210002E202E202E202E202E202E202E202E206E
:100220002E202E202E202E202E202E202E202E205E
:100230002E202E202E202E202E202E202E202E204E
:100240002E20131EC71EE622ED22ED22ED22FC22F7
:100250000223022302231323192319232C231124FD
:100260001FBECFEFD1E2DEBFCDBF00E00CBF16E175
:10027000A0E0B2E0E4E5FAE700E00BBF02C00790BF
:100280000D92A03AB107D9F72DE1A0EAB6E101C07D
:100290001D92A234B207E1F70E9466260C94283D15
:1002A000AFCE0F921F92CF93DF93D92FC82FA88183
:1002B000B9812A810B80209D23E0029ED72FC62F73
:1002C000388191E0442319F0990F4A95E9F7CA95CE
:1002D0008881892B8883C3958D9178E0880F68F099
:1002E000392B90953883000000003923909538838E
:1002F000000000007A9591F70FC0392B9095388354
:100300000000000000000000000000000000392391
:10031000909538837A9511F70A94F1F6DF91CF9191
:100320001F900F9008952F923F924F925F926F927D
:100330007F928F929F92AF92BF92CF92DF92EF9275
:10034000FF920F931F93CF93DF9300D0CDB7DEB70B
:10035000412C662463940F2EF7EACF2EF6E1DF2EB0
:10036000F02D0F2EFFEAEF2EF6E1FF2EF02D00E02C
:1003700010E0542C702E8091B71690E0002E02C031
:10038000959587950A94E2F780FF08C0E091A21640
:10039000F091A316662D802F19955AC0802F0E94C8
:1003A000D021282E81E0821508F052C0402F62E053
:1003B000CE0101960E94E321882309F449C0470138
:1003C000F70180819181009711F00E94943C3A805E
:1003D000A32CB12CF2E0AF0EB11CC5010E94FC3B76
:1003E000F40191838083009751F4E091A216F0917B
:1003F000A31660E0872D19958AEF90E039C031107F
:1004000004C0F6019183808306C09C012E5F3F4F9C
:10041000F60131832083222D30E02A153B05C4F0FC
:1004200062E0630D472D0E94E321882389F08A81D1
:10043000672D8E5F0E943422872D0E94D021E0918B
:10044000A416F091A5164A816981872D1995562C1D
:100450000F5F1F4FF2E0CF0ED11C82E0E80EF11CBF
:100460000430110509F086CF511075CF89E190E075
:100470000F900F900F90DF91CF911F910F91FF90F0
:10048000EF90DF90CF90BF90AF909F908F907F9034
:100490006F905F904F903F902F9008951F920F9212
:1004A0000FB60F9211240BB60F922F933F934F93D9
:1004B0005F936F937F938F939F93AF93BF93CF93EC
:1004C000EF93FF93F8948091A11680FF4BC0C091E9
:1004D000C600C03209F048C081E08093A01660E0F9
:1004E00080E20E94732181113DC08091B716816026
:1004F0008093B71637C08091A016823058F180FFE4
:1005000006C0C1110AC08F5F8093A01609C0CF3FFB
:1005100021F48F5F8093A01603C01092A01622C012
:100520008091A0168C30F1F480E090E00E948A2245
:1005300080E20E94CC308AE00E94CC30C5E08FEF90
:100540000E94CC3080E00E94CC30C150C1F71092A4
:10055000A01608C0CA3021F48F5F8093A01602C095
:100560001092A016789408C060E08C2F0E9473212E
:10057000882309F4BACFBFCFFF91EF91CF91BF91FC
:10058000AF919F918F917F916F915F914F913F912B
:100590002F910F900BBE0F900FBE0F901F901895CC
:1005A0001F920F920FB60F9211240BB60F922F933A
:1005B0003F934F935F936F937F938F939F93AF93EB
:1005C000BF93EF93FF93F8948091A11681FF0CC025
:1005D0008091CE0061E00E947321811105C080915D
:1005E000B71682608093B7167894FF91EF91BF9110
:1005F000AF919F918F917F916F915F914F913F91BB
:100600002F910F900BBE0F900FBE0F901F9018955B
:100610001F920F920FB60F9211240BB60F922F93C9
:100620003F934F935F936F937F938F939F93AF937A
:10063000BF93EF93FF93F8948091A11682FF0DC0B2
:100640008091D60062E00E947321811108C08091E0
:10065000B71684608093B71602C00E944F26789424
:10066000FF91EF91BF91AF919F918F917F916F918A
:100670005F914F913F912F910F900BBE0F900FBE46
:100680000F901F9018951F920F920FB60F92112482
:100690000BB60F922F933F934F935F936F937F937C
:1006A0008F939F93AF93BF93EF93FF93F8948091B1
:1006B000360163E00E947321811105C08091B71655
:1006C00088608093B7167894FF91EF91BF91AF91B6
:1006D0009F918F917F916F915F914F913F912F915A
:1006E0000F900BBE0F900FBE0F901F901895AF92FA
:1006F000BF92DF92EF92FF920F931F93CF93DF93FE
:10070000CDB7DEB71D85DE847E018FE0E80EF11CDB
:10071000DD2079F100E0113081F028F01230B9F0DD
:100720001330E9F026C0570192E0A90EB11CF70181
:1007300080810E94CC30750119C05701F2E0AF0EE4
:10074000B11CF70180810E94723175010FC0F70161
:100750008081F2E0EF0EF11C0E94EE3107C0F7013C
:10076000808192E0E90EF11C0E9469320F5FD01285
:10077000D2CFDF91CF911F910F91FF90EF90DF903B
:10078000BF90AF900895CF92DF92EF92FF92CF93F8
:10079000C82F6A017B010E945221C130B9F028F0B4
:1007A000C23029F1C33079F14CC020E042E0C701EA
:1007B000B6010E945730E2ECF0E0808188608083CF
:1007C000E1ECF0E08081806880832DC020E042E091
:1007D000C701B6010E94FD30EAECF0E0808188603C
:1007E0008083E9ECF0E08081806880831CC020E099
:1007F00042E0C701B6010E947A31E1EDF0E080816C
:100800008068808310C020E042E0C701B6010E94EA
:10081000F631E2E3F1E0808188608083E1E3F1E09A
:100820008081806880832091A11681E090E002C0E1
:10083000880F991FCA95E2F7822B8093A11681E059
:1008400001C080E0CF91FF90EF90DF90CF900895AE
:100850009091A11621E030E0082E02C0220F331F34
:100860000A94E2F7209529232093A11690E00C9496
:100870008A2208950895E82FF0E0EE0FFF1FE95552
:10088000F94EA081B181CD010196918380838C9135
:100890000895CF92DF92EF92FF920F931F93CF9321
:1008A000DF93CDB7DEB7DC840E851F920F931F92C6
:1008B0008D858F9382E08F93DF9219DF0F900F90D9
:1008C0000F900F900F900F900023C9F07E018FE0E2
:1008D000E80EF11C10E0CC24C394F701818192E072
:1008E000E90EF11C8F9380818F93CF92DF92FFDE10
:1008F0001F5F0F900F900F900F900113EECFDF91BD
:10090000CF911F910F91FF90EF90DF90CF900895BE
:10091000E82FF0E0EF5FF24E60831F921F921F926C
:1009200095E09F9392E09F938F93E1DE0F900F905D
:100930000F900F900F900F900895CF92DF92EF924B
:10094000FF920F931F93CF93DF93CDB7DEB78C85C4
:10095000ED849091011D8917C1F09091021D9817A7
:1009600069F09091031D891761F09091041D98130F
:100970000EC00F2EF3E0DF2EF02D0CC0DD24D3943B
:1009800009C06894DD24D1F805C0D12C03C0689457
:10099000DD24D2F80E2D10E01F92EF921F928F935C
:1009A00082E08F93DF92A3DE0F900F900F900F9055
:1009B0000F900F90012BC9F08E01025F1F4FEE20A8
:1009C000A1F0F12CCC24C394F80181810E5F1F4F5C
:1009D0008F9380818F93CF92DF9289DEF3940F9073
:1009E0000F900F900F90EF10EFCFDF91CF911F91ED
:1009F0000F91FF90EF90DF90CF9008959091011D9F
:100A00008917C1F09091021D891761F09091031D23
:100A1000891761F09091041D981313C093E0E3E0EF
:100A2000F0E00BC091E0E1E0F0E007C092E0E2E02E
:100A3000F0E003C0E0E0F0E090E0EF5FF24E108203
:100A400001C094E01F921F921F9286E08F9382E074
:100A50008F939F934CDE0F900F900F900F900F90FD
:100A60000F900895CF93DF93EC010E945221809163
:100A7000A616811108C06CE271E083E991E00E9442
:100A8000162F8093A616209721F0D093A516C09319
:100A9000A416DF91CF91089581E08093B81680E08D
:100AA00090E00895E091081DF091091D429181E0C8
:100AB00090E09C010090351D02C0220F331F0A9464
:100AC000E2F7242B2083E091081DF091091D30816D
:100AD000AC010090351D02C0440F551F0A94E2F787
:100AE000242F20952323208323E130E03093A90095
:100AF0002093A80022E0209372001092A50010928B
:100B0000A4001092A0002AE02093A100E091081D0B
:100B1000F091091D20810090351D02C0880F991F9A
:100B20000A94E2F7822B8083789408951F920F92A3
:100B30000FB60F9211240BB60F922F938F939F93A2
:100B4000EF93FF93E091081DF091091D808190E0E3
:100B50000090351D02C0959587950A94E2F780FFB5
:100B600025C08BE08093A100E091081DF091091D44
:100B7000208181E090E00090351D02C0880F991F10
:100B80000A94E2F78095822380831092A500109248
:100B9000A4008FE790E09093A9008093A8001092A2
:100BA0001B1D10921A1D10921C1D09C080911A1D48
:100BB00090911B1D019690931B1D80931A1DFF9110
:100BC000EF919F918F912F910F900BBE0F900FBEC1
:100BD0000F901F901895CF93C82F8093071D3093C7
:100BE000061D2093051D7093091D6093081D4093F9
:100BF000351D10921C1D64E670E08CE495E00E94A7
:100C0000162F1092B8169091071DE6E0F1E0808152
:100C10008923E9F747DFE8E6F0E08081846080839C
:100C2000C0936D00CF9108951F920F920FB60F924F
:100C300011240BB60F922F923F924F925F926F92B8
:100C40007F928F929F92AF92BF92CF92DF92EF925C
:100C5000FF920F931F932F933F934F935F936F9345
:100C60007F938F939F93AF93BF93CF93DF93EF9334
:100C7000FF93B09006010091071DB022A0901C1DAB
:100C8000AB24B0921C1D212C312C30901A1D0F2E3C
:100C9000FAE0EF2EFDE1FF2EF02DCDE1DDE10F2E8C
:100CA000F5E3CF2EFDE1DF2EF02D9924939411E092
:100CB000812C44244A94542C612C712C802F812344
:100CC00009F462C08A2D812309F45AC08B2D812337
:100CD00061F041E04883E4EAF0E080819181820D97
:100CE000931D9A838983982C4FC0F2E0F883E4EA3D
:100CF000F0E020813181220D331D89819A812817EE
:100D00003907B0F0281B390B22953295307F3227F6
:100D1000207F3227AFE9B6E40E94DD3B92958295B1
:100D20008F7089279F708927F701918380832CC05A
:100D3000B301A201481B590B61097109DB01CA010A
:100D4000820F931FA11DB11D880F991FAA1FBB1FE2
:100D5000880F991FAA1FBB1FBC01CD01660F771F0B
:100D6000881F991F660F771F881F991F2AE330E09D
:100D700040E050E00E94B33BF7013183208304C080
:100D80008881823009F0982C110FF2E0EF0EF11CEF
:100D90002396CC15DD0509F091CF992049F01092EA
:100DA000A100E091051DF091061D8AE09DE11995D5
:100DB000FF91EF91DF91CF91BF91AF919F918F9173
:100DC0007F916F915F914F913F912F911F910F9163
:100DD000FF90EF90DF90CF90BF90AF909F908F905B
:100DE0007F906F905F904F903F902F900F900BBE31
:100DF0000F900FBE0F901F901895E8E6F0E08081ED
:100E00008160808380E090E008950E94602E8111CF
:100E100005C083EC9AE00C94EA3008958091B916ED
:100E200081111EC081E08093B91684B18F7884B996
:100E300085B1806785B98FE39CE90197F1F700C020
:100E40000000EBE6F0E0808180678083E8E6F0E078
:100E5000808181608083789483B180778093C0168D
:100E6000089593B1982381E009F080E008951F92DE
:100E70000F920FB60F9211240BB60F921F932F9360
:100E80003F934F935F936F937F938F939F93AF9312
:100E9000BF93CF93DF93EF93FF93D3B11D2F1077C1
:100EA000C091C016C127C4FF0CC0E091BE16F091DE
:100EB000BF16309731F0D4FB882780F991E089275D
:100EC0001995C5FF0CC0E091BC16F091BD16309786
:100ED00031F0D5FB882780F991E089271995C6FF65
:100EE0000CC0E091BA16F091BB16309731F0D6FBEA
:100EF000DD27D0F981E08D271995C07759F0E8E614
:100F0000F0E080818E7F808364E670E08DEF96E074
:100F10000E94162F1093C016FF91EF91DF91CF9191
:100F2000BF91AF919F918F917F916F915F914F9101
:100F30003F912F911F910F900BBE0F900FBE0F90FE
:100F40001F90189592B19F7C92B922B130E1839F96
:100F5000C0011124822B82B9089592B1937F92B976
:100F600022B134E0839FC0011124822B82B90895FD
:100F7000CF93DF93FC01DB01EA014C815D812A8183
:100F80003B818881998160851F926F9367811F9251
:100F90006F9366811F926F93BA0177277F936F9348
:100FA0001F925F9312964C911297642F042E000C9F
:100FB000770B7F934F9345811F924F9344811F92EC
:100FC0004F9343811F924F93A90155275F934F93EE
:100FD0001F923F9311962C911197422F022E000CD5
:100FE000550B5F932F9322811F922F9321811F9284
:100FF0002F9320811F922F939C0133273F932F9390
:101000001F929F938C91282F082E000C330B3F9337
:101010008F9382E18F9383E68F938FDC8DB79EB79A
:1010200086960FB6F8949EBF0FBE8DBFDF91CF910D
:1010300008951F928F9381E08F9381E68F937DDCDB
:1010400081E6DCDC0F900F900F900F900895CF9306
:10105000DF93FC01DB01EA014C815D812A813B8148
:101060008881998160851F926F9367811F926F932A
:1010700066811F926F93BA0177277F936F931F92B8
:101080005F9312964C911297642F042E000C770BED
:101090007F934F9345811F924F9344811F924F93AB
:1010A00043811F924F93A90155275F934F931F923E
:1010B0003F9311962C911197422F022E000C550B45
:1010C0005F932F9322811F922F9321811F922F9341
:1010D00020811F922F939C0133273F932F931F92C0
:1010E0009F938C91282F082E000C330B3F938F93E6
:1010F00082E18F9382E68F9320DC8DB79EB7869630
:101100000FB6F8949EBF0FBE8DBF82E677DCDF91ED
:10111000CF9108950F931F93CF93DF9380912E1754
:101120008111A8C081E080932E1780E091E0909318
:10113000E4168093E3160E9A169881B1806381B904
:1011400081B18F6081B957988091E3169091E41630
:101150000E94352B893008F486C01092E51685C0B0
:101160008091E3169091E41608968C0F9D1F0E94C3
:10117000352BF80180838091E3169091E41609964F
:101180008C0F9D1F0E94352BF80181838091E316FF
:101190009091E4160A968C0F9D1F0E94352BF80142
:1011A00082838091E3169091E4160B968C0F9D1F1D
:1011B0000E94352BF80183838091E3169091E41609
:1011C0000C968C0F9D1F0E94352BF8018483809113
:1011D000E3169091E4160D968C0F9D1F0E94352BFF
:1011E000F80185838091E3169091E4160E968C0F9A
:1011F0009D1F0E94352BF80186838091E316909104
:10120000E4160F968C0F9D1F0E94352BF8018783E3
:101210008091E3169091E41640968C0F9D1F0E94DA
:10122000352BF80180872996075F1F4FC834D105F9
:1012300009F096CF82B18C7F82B982B1836082B986
:101240001092900088E08093910014BC81E080931C
:101250006E0082E0809371008AEF90E09093990095
:101260008093980007C08093E51606EE16E1C0E073
:10127000D0E076CFDF91CF911F910F9108958091AB
:101280002E17811105C083E99BE00C94EA30089584
:101290001092E51660E08091E3169091E4160C94AC
:1012A0002D2B0895CF92DF92EF92FF920F931F9311
:1012B000CF93DF93EB01FC01A081B0E02881A21B5A
:1012C000B1092181E22FF0E029818F01021B110970
:1012D000FC01428150E08A81481B51099D010E9416
:1012E000D73B6B017C019801D8010E94D73BC60E09
:1012F000D71EE81EF91E9A01DA010E94D73BDC01D5
:10130000CB018C0D9D1DAE1DBF1D8115F0E89F0703
:10131000A105B10514F08FEF9FE7DF91CF911F91E9
:101320000F91FF90EF90DF90CF9008953F924F92F2
:101330005F926F927F928F929F92AF92BF92CF9265
:10134000DF92EF92FF920F931F93CF93DF93B090B2
:10135000E516B11006C08FEFFB0180838183828385
:10136000B3C0EA016B017C01082FAF2CBC0186EEF3
:1013700096E198DF99838883F1E0FB1510F50F2E35
:10138000FFEE8F2EF6E19F2EF02D11E0312C602F15
:101390007A2DC40187DF2C01612C712C4881598181
:1013A00060E070E044165506660677061CF49983E3
:1013B0008883312E1F5F89E0880E911CB112E7CF20
:1013C00001C0312C28813981809106029091070259
:1013D0002817390718F4F601308203C08FEFF601A1
:1013E00080834701F3E08F0E911CB40189EE96E1F2
:1013F00059DF9B838A8381E08B15E8F402EF16E1C5
:10140000AA24A394312CB401C8014CDF2C01612C17
:10141000712C4A815B8160E070E0441655066606D7
:1014200077061CF49B838A833A2CA394075F1F4F93
:10143000BA10E9CF01C0312C2A813B81809108028A
:10144000909109022817390718F4F601318203C078
:101450008FEFF6018183F6E0EF0EF11CB7018CEE01
:1014600096E120DF9D838C8381E08B15E8F405EF06
:1014700016E1AA24A394912CB701C80113DF2C0113
:10148000612C712C4C815D8160E070E04416550642
:10149000660677061CF49D838C839A2CA394075FC1
:1014A0001F4FBA10E9CF01C0912C2C813D81809152
:1014B0000A0290910B022817390718F4F60192825C
:1014C00003C08FEFF6018283DF91CF911F910F91BF
:1014D000FF90EF90DF90CF90BF90AF909F908F9054
:1014E0007F906F905F904F903F9008951F920F9262
:1014F0000FB60F9211240BB60F922F933F934F9379
:101500005F936F937F938F939F93AF93BF93CF938B
:10151000DF93EF93FF93E1E9F0E080818B7F80839D
:1015200015BC8091E21690E08A30910508F025C242
:10153000FC018827EE58FF4F8F4F0C94CF3B80E083
:1015400001DD80E00ADD81E08093E21616C2809121
:10155000DF16811102C086B501C08FEF8093CA16D5
:1015600083E0FBDC82E08093E21607C28091DF1605
:10157000811102C086B501C08FEF8093CB1681E048
:10158000ECDC83E08093E216F8C18091DF168111D4
:1015900002C086B501C08FEF8093CC168091E01613
:1015A00081115CC0CAECD6E18091E51690E09C0107
:1015B000220F331F220F331F220F331F820F931F5F
:1015C0002091E3163091E416285F3F4F6881820F27
:1015D000931F0E942D2B8091E51690E09C01220F15
:1015E000331F220F331F220F331F820F931F2091AF
:1015F000E3163091E416275F3F4F6981820F931FF6
:101600000E942D2B8091E51690E09C01220F331F44
:10161000220F331F220F331F820F931F2091E316D7
:101620003091E416265F3F4F6A81820F931F0E941C
:101630002D2B8091E51690E0FC01EE0FFF1FEE0FC1
:10164000FF1FEE0FFF1F8E0F9F1FFC01EA51F94E87
:1016500088819981AA8180839183A28381E072DC51
:1016600080E07BDC8091E2168F5F8093E21685C17B
:101670008091DF16811102C086B501C08FEF809383
:10168000CD1683E06ADC85E08093E21676C1809116
:10169000DF16811102C086B501C08FEF8093CE1690
:1016A00081E05BDC86E08093E21667C18091DF1603
:1016B000811102C086B501C08FEF8093CF16809153
:1016C000E01681115BC0CAECD6E18091E51690E08E
:1016D0009C01220F331F220F331F220F331F820F53
:1016E000931F2091E3163091E416255F3F4F6B81E5
:1016F000820F931F0E942D2B8091E51690E09C0194
:10170000220F331F220F331F220F331F820F931F0D
:101710002091E3163091E416245F3F4F6C81820FD5
:10172000931F0E942D2B8091E3169091E4160D9645
:101730002091E51630E0A901440F551F440F551FB5
:10174000440F551F240F351F6D81820F931F0E9478
:101750002D2B8091E51690E0FC01EE0FFF1FEE0FA0
:10176000FF1FEE0FFF1F8E0F9F1FFC01EA51F94E66
:101770008B819C81AD8183839483A58382E0E2DBAE
:1017800080E0EBDB8091E2168F5F8093E216F5C07C
:101790008091DF16811102C086B501C08FEF809362
:1017A000D01683E0DADB88E08093E216E6C0809111
:1017B000DF16811102C086B501C08FEF8093D1166C
:1017C00081E0CBDB89E08093E216D7C08091DF1601
:1017D000811102C086B501C08FEF8093D21680912F
:1017E000E016811173C0CAECD6E18091E51690E055
:1017F0009C01220F331F220F331F220F331F820F32
:10180000931F2091E3163091E416225F3F4F6E81C3
:10181000820F931F0E942D2B8091E51690E09C0172
:10182000220F331F220F331F220F331F820F931FEC
:101830002091E3163091E416215F3F4F6F81820FB4
:10184000931F0E942D2B8091E51690E09C01220FA2
:10185000331F220F331F220F331F820F931F20913C
:10186000E3163091E416205F3F4F6885820F931F87
:101870000E942D2B6091E516862F90E0FC01EE0F63
:10188000FF1FEE0FFF1FEE0FFF1F8E0F9F1FFC01AC
:10189000EA51F94E8E819F81A88586839783A08720
:1018A0006F5F6093E5168091E3169091E4160E94B5
:1018B0002D2BE091DB16F091DC16309709F456C021
:1018C0008091E516BE018150199550C041EC56E15A
:1018D00067EC76E18AEC96E129DD8091C7168F3FAF
:1018E00041F090910C02891731F080930C02C1E015
:1018F00003C0C0E001C0C0E08091C8168F3F39F03E
:1019000090910D02891719F080930D02C1E080912A
:10191000C9168F3F69F090910E02891749F08093A4
:101920000E02E091D916F091DA16309741F411C009
:10193000E091D916F091DA16309711F408C0C1E0A1
:1019400041EC56E16CE072E08AEC96E11995CC230B
:1019500069F0E091D716F091D816309739F041EC44
:1019600056E16CE072E08AEC96E119958091E216FE
:101970008F5F8093E216169811C01092DF161092B6
:1019800095001092940016BC8FEF85BB88BBE1E9EF
:10199000F0E080818460808387E085BDFF91EF91D6
:1019A000DF91CF91BF91AF919F918F917F916F9177
:1019B0005F914F913F912F910F900BBE0F900FBEF3
:1019C0000F901F9018951F920F920FB60F9211242F
:1019D0008F938091DF168F5F8093DF168F910F902A
:1019E0000FBE0F901F901895CF93C0912E17C11165
:1019F00005C08DEB9BE00E94EA3021C02091E516E6
:101A00002830E0F49093DC168093DB1680E09ADABD
:101A100080E0A3DA1092E0161092E216169A109265
:101A2000950010929400E1E9F0E080818460808369
:101A300016BC87E085BD7894C1E001C0C0E08C2F62
:101A4000CF910895CF93DF93EC0180912E178111F0
:101A500005C084EE9BE00E94EA3026C0C436D10562
:101A600010F4C4E6D0E01092D6161092D5167093FA
:101A7000D4166093D316D093DE16C093DD168091F2
:101A8000E11681110E94902F8FEF80930C02BE010E
:101A900089EC9EE00E94162F8093E116811104C00C
:101AA00089E19CE00E94EA30DF91CF910895809116
:101AB0002E17811105C08BE59CE00C94EA30089547
:101AC0008091E116882321F00E94902F1092E11658
:101AD00008959C0190912E17911105C08FE89CE00C
:101AE0000C94EA3008953093DA162093D916709347
:101AF000D8166093D71680E025DA80E02EDA81E0F0
:101B00008093E0161092E216169A109295001092A9
:101B10009400E1E9F0E080818460808316BC87E076
:101B200085BD789408950F931F93CF93DF93D82F9B
:101B3000C0912E17C11105C081EB9CE00E94EA30D4
:101B400022C1623609F460C028F4603651F0613673
:101B500099F118C1633609F4CCC0643609F46EC03B
:101B600011C14130D9F40E943B04863A59F01F92CA
:101B700083E08F93DF930E9449040F900F900F90A2
:101B8000C1E001C17CDB1F9280E68F93DF930E944E
:101B900049040F900F900F90C1E0F5C0642F0E9490
:101BA0003A041F9281E08F93DF930E9449040F90C3
:101BB0000F900F90C1E0E7C04130C1F40E943B0498
:101BC000863A59F01F9283E08F93DF930E94490475
:101BD0000F900F900F90C1E0D6C061E68D2F0E944C
:101BE000880489E198E000DFC1E0CDC0642F0E9445
:101BF0003A041F9281E08F93DF930E9449040F9073
:101C00000F900F90C1E0BFC041110AC062E60E9470
:101C1000880460E070E087E298E05BDFC1E0B3C079
:101C2000642F0E943A041F9281E08F93DF930E94F9
:101C300049040F900F900F90C1E0A5C0413009F00A
:101C40004AC00E943B049091E516891758F01F92F4
:101C500083E08F93DF930E9449040F900F900F90C1
:101C6000C1E091C090E0FC01EE0FFF1FEE0FFF1FDF
:101C7000EE0FFF1F8E0F9F1FFC01EA51F94E80856A
:101C80001F928F9387811F928F9386811F928F93CC
:101C900085811F928F9384811F928F9383811F92DE
:101CA0008F9382811F928F9381811F928F93808166
:101CB0001F928F9389E08F9384E68F93DF930E9426
:101CC00049048DB79EB745960FB6F8949EBF0FBED8
:101CD0008DBFC1E058C0642F0E943A041F9281E07A
:101CE0008F93DF930E9449040F900F900F90C1E0F3
:101CF0004AC04230C9F50E943B04082F10E0102F63
:101D000000278D2F0E943B04082B0E94632EBC01EC
:101D1000C8010E946A3B892B59F01F9283E08F9380
:101D2000DF930E9449040F900F900F90C1E02BC0E9
:101D3000BEDE0115110571F483E60E94FE041F92B8
:101D400086E08F93DF930E9449040F900F900F90CD
:101D5000C1E019C063E68D2F0E94880468EB77E02C
:101D6000C80170DEC1E00FC0642F0E943A041F92C8
:101D700081E08F93DF930E9449040F900F900F90A2
:101D8000C1E001C0C0E08C2FDF91CF911F910F9176
:101D900008956091D3167091D4168091D5169091C4
:101DA000D61697DE8091DD169091DE160895CF93BA
:101DB000AC018935910598F091E09F5F292F30E0C3
:101DC000F901EE0FFF1FE20FF31FE254F24F6081A3
:101DD00071816417750788F3913049F404C068E590
:101DE00070E021E030E04C33510508F47DC0F9018A
:101DF0003197CF01880F991FE80FF91FE254F24F76
:101E0000A081B181C281F901EE0FFF1F2E0F3F1F8C
:101E1000F901E254F24F228130E02C1B31094A1BB8
:101E20005B0B249FC001259F900D349F900D1124C2
:101E30006A1B7B0B0E947E3B6C0F57C0EAE3F7E105
:101E400069C081E0809336176083809139178F5F76
:101E50008093391780913917843008F580913817AD
:101E60002091391790E002C0959587952A95E2F761
:101E700080FD15C0809139178F5F8093391780914D
:101E80003917843060F4809138172091391790E029
:101E900002C0959587952A95E2F780FFEBCF809158
:101EA0003917843038F46091391781E00E94532A41
:101EB00081E037C0E0913217F0913317309719F075
:101EC0008AE397E1199580913617882351F1E091C3
:101ED0003017F0913117309729F08AE397E119957F
:101EE00080E01FC080E01DC06FEF262F30E08091A2
:101EF0003917813039F048F0823051F0833009F4DD
:101F00009DCFA3CFEBE3F7E105C0ECE3F7E102C01F
:101F1000EDE3F7E1808190E08217930709F091CF1C
:101F200094CFCF910895109239178091391784304A
:101F300008F5809138172091391790E002C09595E7
:101F400087952A95E2F780FD15C0809139178F5F3C
:101F50008093391780913917843060F48091381755
:101F60002091391790E002C0959587952A95E2F760
:101F700080FFEBCF80913917843068F410923617C8
:101F80000E944F2A6091391781E00E94532A87ED01
:101F90009EE00E94A82A80913417909135170895E9
:101FA00080912F17811109C081E080932F1780B392
:101FB000807F80BB81B3807F81BB0895809137177C
:101FC000882331F0809137170E94902F1092371795
:101FD00008950F931F93CF93C82F8B0180912F17D4
:101FE000811105C089ED9CE00E94EA303FC0E6DF28
:101FF0001093331700933217C295CF70C0933817E0
:102000001092391780913917843008F5809138176C
:102010002091391790E002C0959587952A95E2F7AF
:1020200080FD15C0809139178F5F8093391780919B
:102030003917843060F4809138172091391790E077
:1020400002C0959587952A95E2F780FFEBCF8091A6
:102050003917843058F40E944F2A6091391781E073
:102060000E94532A87ED9EE00E94A82ACF911F91DB
:102070000F910895CF93DF93EB0190912F1791115A
:1020800005C08DE09DE00E94EA3028C0982F907F27
:1020900029F484E49DE00E94EA3020C082958F708C
:1020A00080933817109233171092321750933117CC
:1020B0004093301770933517609334177FDFBE015C
:1020C00083E99FE00E94162F80933717809137177E
:1020D000811104C08BE79DE00E94EA30DF91CF912F
:1020E0000895EF920F93CF9380913E1781112BC0EB
:1020F00081E080933E1780913F17909140170097A1
:1021000011F00E94A33261E08BE00E947132909343
:10211000401780933F17C0E0E12C00E020E040E052
:102120006C2F80913F17909140170E94AF32CF5F84
:10213000CB3091F747E065E270E080913F179091D6
:1021400040170E94A632CF910F91EF900895EF9221
:102150000F9390913E17911105C088EE9DE00E946B
:10216000EA300DC08B3058F4E22E042F262F40E0C9
:10217000682F80913F17909140170E94AF320F91C6
:10218000EF90089580913E17811105C080E19EE097
:102190000C94EA30089547E065E270E080913F17C3
:1021A000909140170E94A6328FE19EE40197F1F7CB
:1021B00000C000000895EF920F9390913E17911187
:1021C00005C083E39EE00E94EA300EC08B3058F4D5
:1021D000E22E042F262F40E0682F80913F17909128
:1021E00040170E94AF32CEDF0F91EF9008950F930A
:1021F0001F93CF93DF93D82FC0913E17C11105C015
:1022000087E59EE00E94EA303EC06034D9F5443054
:1022100059F50E943B04C82F8D2F0E943B04182FB4
:102220008D2F0E943B04082F8D2F0E943B04CB3042
:1022300058F01F9283E08F93DF930E9449040F9020
:102240000F900F90C1E01FC0282F402F612F8C2FBF
:10225000B2DF1F9280E48F93DF930E9449040F90B6
:102260000F900F90C1E00FC0642F0E943A041F929C
:1022700081E08F93DF930E9449040F900F900F909D
:10228000C1E001C0C0E08C2FDF91CF911F910F9171
:10229000089581E00895AB01BC01DB01CA01689497
:1022A00012F8B695A795979587951694D1F701974B
:1022B0008F3F910509F008F445C020E02F5FE22F21
:1022C000F0E0EE0FFF1FEE0FFF1FEF59F04FDB01A5
:1022D000CA01008004C0B695A795979587950A9482
:1022E000D2F701978F3F910509F040F78093B40032
:1022F0008093B3002230A1F028F4222349F021304A
:1023000059F01DC02430A1F078F02530A9F017C095
:1023100082E08093B10013C083E08093B1000FC0CE
:1023200084E08093B1000BC085E08093B10007C0CA
:1023300086E08093B10003C087E08093B1001092E3
:10234000B20008958093B4008093B300E1CFE2E43B
:10235000F7E181858F5F81879081911105C0909110
:102360004A1789130BC002C0891308C0E1EBF0E0E3
:102370008081887F808382E390E0089590914A175E
:10238000981708F07DC0A2E4B7E113968D919C9157
:102390001497019614969C938E931397FC01EE0F5D
:1023A000FF1F8E0F9F1F880F991F1196ED91FC91B3
:1023B0001297E80FF91F80819181A281B381892B47
:1023C0008A2B8B2BC1F4E0914717F0914817309777
:1023D00041F01995882329F010924617109245175D
:1023E0000AC010924917E1EBF0E08081887F80837A
:1023F00080E090E00895A2E4B7E113968D919C915E
:102400001497FC01EE0FFF1F8E0F9F1F880F991F5F
:102410001196ED91FC911297E80FF91F808191813F
:10242000A281B3810197A105B10531F4E1EBF0E0A0
:102430008081887F808308C0858180934C1760816C
:1024400071818281938127DFA2E4B7E113968D9198
:102450009C911497FC01EE0FFF1F8E0F9F1F880F9A
:10246000991F1196ED91FC911297E80FF91F848145
:1024700018968C93189719961C9282E390E0089511
:1024800082E390E0089580934C178091070A909121
:10249000080AA091090AB0910A0A892B8A2B8B2B72
:1024A00019F180E090E020E030914C17FC01EE0F34
:1024B000FF1FE80FF91FEE0FFF1FE95FF54F358390
:1024C0002F5F822F90E0FC01EE0FFF1FE80FF91F36
:1024D000EE0FFF1FE95FF54F4081518162817381EB
:1024E000452B462B472B01F78091F5099091F60972
:1024F000A091F709B091F809892B8A2B8B2B19F140
:1025000080E090E020E030914C17FC01EE0FFF1FBF
:10251000E80FF91FEE0FFF1FEB50F64F35832F5FCB
:10252000822F90E0FC01EE0FFF1FE80FF91FEE0F66
:10253000FF1FEB50F64F4081518162817381452B23
:10254000462B472B01F78091E9099091EA09A09168
:10255000EB09B091EC09892B8A2B8B2B19F180E0C8
:1025600090E020E030914C17FC01EE0FFF1FE80FC8
:10257000F91FEE0FFF1FE751F64F35832F5F822FB4
:1025800090E0FC01EE0FFF1FE80FF91FEE0FFF1F99
:10259000E751F64F4081518162817381452B462B73
:1025A000472B01F78091C3089091C408A091C508FA
:1025B000B091C608892B8A2B8B2B19F180E090E013
:1025C00020E030914C17FC01EE0FFF1FE80FF91FC0
:1025D000EE0FFF1FED53F74F35832F5F822F90E0F3
:1025E000FC01EE0FFF1FE80FF91FEE0FFF1FED5369
:1025F000F74F4081518162817381452B462B472BD8
:1026000001F780915D0890915E08A0915F08B091FC
:102610006008892B8A2B8B2B19F180E090E020E059
:1026200030914C17FC01EE0FFF1FE80FF91FEE0F62
:10263000FF1FE35AF74F35832F5F822F90E0FC0195
:10264000EE0FFF1FE80FF91FEE0FFF1FE35AF74FC2
:102650004081518162817381452B462B472B01F7C5
:102660008091B5079091B607A091B707B091B807D0
:10267000892B8A2B8B2B19F180E090E020E03091A0
:102680004C17FC01EE0FFF1FE80FF91FEE0FFF1FA5
:10269000EB54F84F35832F5F822F90E0FC01EE0F53
:1026A000FF1FE80FF91FEE0FFF1FEB54F84F40819B
:1026B000518162817381452B462B472B01F7809115
:1026C000B3069091B406A091B506B091B606892BD9
:1026D0008A2B8B2B19F180E090E020E030914C1791
:1026E000FC01EE0FFF1FE80FF91FEE0FFF1FED5467
:1026F000F94F35832F5F822F90E0FC01EE0FFF1F13
:10270000E80FF91FEE0FFF1FED54F94F4081518183
:1027100062817381452B462B472B01F780910B0675
:1027200090910C06A0910D06B0910E06892B8A2B74
:102730008B2B19F180E090E020E030914C17FC01E8
:10274000EE0FFF1FE80FF91FEE0FFF1FE55FF94FB8
:1027500035832F5F822F90E0FC01EE0FFF1FE80F03
:10276000F91FEE0FFF1FE55FF94F40815181628134
:102770007381452B462B472B01F78091A90490913B
:10278000AA04A091AB04B091AC04892B8A2B8B2BAB
:1027900019F180E090E020E030914C17FC01EE0F41
:1027A000FF1FE80FF91FEE0FFF1FE755FB4F3583A3
:1027B0002F5F822F90E0FC01EE0FFF1FE80FF91F43
:1027C000EE0FFF1FE755FB4F4081518162817381FE
:1027D000452B462B472B01F78091E3039091E403AF
:1027E000A091E503B091E603892B8A2B8B2B19F17D
:1027F00080E090E020E030914C17FC01EE0FFF1FCD
:10280000E80FF91FEE0FFF1FED51FC4F35832F5FCF
:10281000822F90E0FC01EE0FFF1FE80FF91FEE0F73
:10282000FF1FED51FC4F4081518162817381452B27
:10283000462B472B01F780910F0290911002A09137
:102840001102B0911202892B8A2B8B2B19F180E097
:1028500090E020E030914C17FC01EE0FFF1FE80FD5
:10286000F91FEE0FFF1FE15FFD4F35832F5F822FB2
:1028700090E0FC01EE0FFF1FE80FF91FEE0FFF1FA6
:10288000E15FFD4F4081518162817381452B462B71
:10289000472B01F708951F920F920FB60F92112444
:1028A0000BB60F928F939F93AF93BF93EF93FF93CA
:1028B00080914C17853609F468C2E2E0F1E090811E
:1028C00080E48927808380914C1790E085369105BC
:1028D00008F05BC2FC018827E458FF4F8F4F0C942F
:1028E000CF3B8FE891E00197F1F700C0000047C2AD
:1028F0008BE891E00197F1F700C0000040C287E843
:1029000091E00197F1F700C0000039C283E891E03F
:102910000197F1F700C0000032C28FE791E0019704
:10292000F1F700C000002BC28BE791E00197F1F7AF
:1029300000C0000024C287E791E00197F1F700C0D2
:1029400000001DC283E791E00197F1F700C000008D
:1029500016C28FE691E00197F1F700C000000FC2A8
:102960008BE691E00197F1F700C0000008C287E60E
:1029700091E00197F1F700C0000001C283E691E009
:102980000197F1F700C00000FAC18FE591E00197CF
:10299000F1F700C00000F3C18BE591E00197F1F77A
:1029A00000C00000ECC187E591E00197F1F700C09D
:1029B0000000E5C183E591E00197F1F700C0000058
:1029C000DEC18FE491E00197F1F700C00000D7C1AC
:1029D0008BE491E00197F1F700C00000D0C187E4DB
:1029E00091E00197F1F700C00000C9C183E491E0D4
:1029F0000197F1F700C00000C2C18FE391E0019799
:102A0000F1F700C00000BBC18BE391E00197F1F743
:102A100000C00000B4C187E391E00197F1F700C066
:102A20000000ADC183E391E00197F1F700C0000021
:102A3000A6C18FE291E00197F1F700C000009FC1AD
:102A40008BE291E00197F1F700C0000098C187E2A6
:102A500091E00197F1F700C0000091C183E291E09D
:102A60000197F1F700C000008AC18FE191E0019762
:102A7000F1F700C0000083C18BE191E00197F1F70D
:102A800000C000007CC187E191E00197F1F700C030
:102A9000000075C183E191E00197F1F700C00000EB
:102AA0006EC18FE091E00197F1F700C0000067C1AF
:102AB0008BE091E00197F1F700C0000060C187E072
:102AC00091E00197F1F700C0000059C183E091E067
:102AD0000197F1F700C0000052C18FEF90E001971D
:102AE000F1F700C000004BC18BEF90E00197F1F7C8
:102AF00000C0000044C187EF90E00197F1F700C0EB
:102B000000003DC183EF90E00197F1F700C00000A5
:102B100036C18FEE90E00197F1F700C000002FC1A1
:102B20008BEE90E00197F1F700C0000028C187EE1E
:102B300090E00197F1F700C0000021C183EE90E022
:102B40000197F1F700C000001AC18FED90E00197E6
:102B5000F1F700C0000013C18BED90E00197F1F791
:102B600000C000000CC187ED90E00197F1F700C0B4
:102B7000000005C183ED90E00197F1F700C000006F
:102B8000FEC08FEC90E00197F1F700C00000F7C0A5
:102B90008BEC90E00197F1F700C00000F0C087ECEB
:102BA00090E00197F1F700C00000E9C083EC90E0ED
:102BB0000197F1F700C00000E2C08FEB90E00197B1
:102BC000F1F700C00000DBC09AEF9A95F1F700C062
:102BD000D6C085EF8A95F1F70000D1C090EF9A95A5
:102BE000F1F7CDC08AEE8A95F1F700C0C8C095EE26
:102BF0009A95F1F70000C3C080EE8A95F1F7BFC047
:102C00009AED9A95F1F700C0BAC085ED8A95F1F773
:102C10000000B5C090ED9A95F1F7B1C08AEC8A95A5
:102C2000F1F700C0ACC095EC9A95F1F70000A7C091
:102C300080EC8A95F1F7A3C09AEB9A95F1F700C062
:102C40009EC085EB8A95F1F7000099C090EB9A95AC
:102C5000F1F795C08AEA8A95F1F700C090C095EA2D
:102C60009A95F1F700008BC080EA8A95F1F787C04A
:102C70009AE99A95F1F700C082C085E98A95F1F743
:102C800000007DC090E99A95F1F779C08AE88A95AD
:102C9000F1F700C074C095E89A95F1F700006FC095
:102CA00080E88A95F1F76BC09AE79A95F1F700C032
:102CB00066C085E78A95F1F7000061C090E79A95B4
:102CC000F1F75DC08AE68A95F1F700C058C095E635
:102CD0009A95F1F7000053C080E68A95F1F74FC04E
:102CE0009AE59A95F1F700C04AC085E58A95F1F713
:102CF000000045C090E59A95F1F741C08AE48A95B5
:102D0000F1F700C03CC095E49A95F1F7000037C098
:102D100080E48A95F1F733C09AE39A95F1F700C001
:102D20002EC085E38A95F1F7000029C090E39A95BB
:102D3000F1F725C08AE28A95F1F700C020C095E23C
:102D40009A95F1F700001BC080E28A95F1F717C051
:102D50009AE19A95F1F700C012C085E18A95F1F7E2
:102D600000000DC090E19A95F1F709C08AE08A95BC
:102D7000F1F700C004C095E09A95F1F70000E2E099
:102D8000F1E0908180E489278083FF91EF91BF91EA
:102D9000AF919F918F910F900BBE0F900FBE0F9030
:102DA0001F90189580914117811111C081E0809387
:102DB0004117E1E0F1E080818064808382E08093CC
:102DC000B0001092B10084E0809370007894089570
:102DD000CF92DF92EF92FF926B017C0180914117BD
:102DE000811105C081E89EE00E94EA3008C0809110
:102DF000491781110E941430C701B6014CDAFF90C7
:102E0000EF90DF90CF90089580914117811105C018
:102E100083EA9EE00C94EA300895E1EBF0E08081D3
:102E2000887F80838091491781110C9435300895F3
:102E300080914117811105C086EC9EE00C94EA3028
:102E4000089580914917882321F00E94902F1092B5
:102E50004917E1EBF0E08081887F80830895CF926D
:102E6000DF92FF920F931F93CF93DF93EC01F62E27
:102E70006A0180914117811105C088EE9EE00E9491
:102E8000EA302DC0D5DF88819981AA81BB81892B49
:102E90008A2B8B2B21F102E417E1F801D283C18345
:102EA00014821382D682C582F0828D8180934C1762
:102EB000688179818A819B81EED98C81F801808734
:102EC000118662E370E087EA91E10E94162FF80113
:102ED0008783811104C08AE09FE00E94EA30DF917D
:102EE000CF911F910F91FF90DF90CF9008950F9396
:102EF0001F93CF93DF93D82FC0914117C11105C005
:102F000089E39FE00E94EA300CC1603509F43EC0BD
:102F100018F4693441F004C1613509F477C06235B1
:102F200009F4E2C0FDC0442319F0413099F020C0FB
:102F300080914C171F928F9381E08F9389E48F9338
:102F4000DF930E9449040F900F900F900F900F9005
:102F5000C1E0E7C00E943B0496DA1F9289E48F9398
:102F6000DF930E9449040F900F900F90C1E0D9C0E9
:102F7000642F0E943A041F9281E08F93DF930E9496
:102F800049040F900F900F90C1E0CBC0423081F503
:102F90000E943B04282F30E0122F00278D2F0E9423
:102FA0003B049801282B21153105B1F040E050E099
:102FB00060E074E284EF90E00E94B33BCA01B90183
:102FC00007DF1F9283E08F93DF930E9449040F90E5
:102FD0000F900F90C1E0A5C017DF1F9280E58F937F
:102FE000DF930E9449040F900F900F90C1E099C0A9
:102FF000642F0E943A041F9281E08F93DF930E9416
:1030000049040F900F900F90C1E08BC0433009F03E
:103010005DC00E943B04C82F8D2F0E943B04182FD7
:103020008D2F0E943B04282FCB3020F41B3010F44E
:10303000823058F01F9283E08F93DF930E944904FF
:103040000F900F900F90C1E06CC08C2F90E0FC01AE
:103050003197EA30F10520F58827EF51FF4F8F4F68
:103060000C94CF3B85EF99E01DC087E09AE01AC031
:1030700083EC98E017C08DE598E014C085EB97E0ED
:1030800011C083EB96E00EC08BE096E00BC089EA9E
:1030900094E008C083EE93E005C08FE092E002C0A8
:1030A00089EE99E0213019F040E050E002C049E497
:1030B00051E1612FD4DE1F9281E58F93DF930E944F
:1030C00049040F900F900F90C1E02BC0642F0E9415
:1030D0003A041F9281E08F93DF930E9449040F907E
:1030E0000F900F90C1E01DC041110CC0A1DE1F92D6
:1030F00082E58F93DF930E9449040F900F900F9009
:10310000C1E00FC0642F0E943A041F9281E08F93A8
:10311000DF930E9449040F900F900F90C1E001C00F
:10312000C0E08C2FDF91CF911F910F910895809176
:103130008617811126C0E8E2F1E0808191819695A1
:10314000879591838083AAE2B1E08D919C9111973C
:103150009695879511969C938E9380819181C297C5
:1031600020F4109229011092280180912A01909157
:103170002B01C29708F09EC010922B0110922A01D9
:1031800099C08091851788232CF020918117309168
:10319000821704C0209183173091841710928217F0
:1031A00010928117109284171092831780918617BE
:1031B000880F990B821B930B9C0112F42D5F3F4FDC
:1031C000F901F595E795F595E79580919F0A882394
:1031D00079F180917F179091801760917D177091A0
:1031E0007E1720917D1730917E17232B19F00E94B6
:1031F0006A3B02C06AE070E0809128019091290149
:10320000E69F9001E79F300DF69F300D1124820F4D
:10321000931F992314F480E090E0893E23E0920705
:1032200014F088EE93E0909329018093280106C062
:1032300088EE93E0909329018093280180919F0A62
:10324000882391F180917D1790917E1780917F174F
:103250009091801780917F179091801720912A017B
:1032600030912B0140917D1750917E1760917F170F
:1032700070918017E49FC001E59F900DF49F900D21
:1032800011240E946A3B620F731F772314F460E0DD
:1032900070E0693E83E0780714F068EE73E07093A5
:1032A0002B0160932A0106C088EE93E090932B01D6
:1032B00080932A0184E690E008951F9283E18F9322
:1032C0000E949D0483E10E94FE040F900F900895D8
:1032D0001F9284E18F930E949D0484E10E94FE046A
:1032E0000F900F9008959CE4980F923388F4682F04
:1032F00090E090939E0A80939D0A80E090E00E9467
:103300002D2B60E081E090E00E942D2B81E008955C
:1033100080E00895CF93DF93E9011616170618068B
:1033200019067CF4EBE0F1E020812260208320810B
:103330002F7D208320812160208320812B7F20838B
:1033400015C0EBE0F1E020812062208320812D7FF9
:10335000208320812460208320812E7F20839095EC
:103360008095709561957F4F8F4F9F4F4093861743
:10337000A0919D0AB0919E0A9B01AC010E94F23B74
:1033800027E330E040E050E00E94B33B2093791700
:1033900030937A1740937B1750937C1710927517D0
:1033A000109276171092771710927817D0936817AB
:1033B000C0936717DF91CF910895CF9380918717BE
:1033C00081115BC081E08093871780E090E00E94CC
:1033D000352BC82F81E090E00E94352B8C2B90E09C
:1033E00090939E0A80939D0A80919D0A90919E0AD7
:1033F000843B910538F080919D0A90919E0A863E0B
:10340000910530F089ED90E090939E0A80939D0A9B
:10341000EBE0F1E08081807C8083EAE0F1E0808174
:103420008F638083109229011092280110922B0142
:1034300010922A0182EA809320018CE1809321017D
:1034400088EE93E09093270180932601EAE6F0E06E
:1034500080818160808380818D7F8083EC9A8081F0
:10346000846080838081877F8083ED9A64E670E04A
:1034700087E998E10E94162F7894CF9108958536B8
:103480000CF084E68C390CF48CE91816E4F427E689
:103490008202212D11242595259587FD2395022E45
:1034A000000C330BA901465F5F4F50937E1740938A
:1034B0007D174AE050E0BA01621B730B70938017CE
:1034C00060937F171BC027E68202212D11242595CA
:1034D000259587FD2395022E000C330BA901465F2D
:1034E0005F4F50937E1740937D174AE050E0BA013A
:1034F000621B730B7093801760937F1780938517FF
:1035000008951092791710927A1710927B171092E3
:103510007C1785360CF084E68C390CF48CE990919C
:1035200086179817E1F118167CF4EBE0F1E0908132
:103530009260908390819F7D90839081946090832E
:1035400090819E7F908328C0882384F4EBE0F1E093
:1035500090819062908390819D7F90839081916013
:10356000908390819B7F9083819516C090919F0A54
:10357000992391F0EBE0F1E0208191E09227908394
:10358000208192E092279083208194E0922790837B
:10359000208190E29227908380938617C8CD08956A
:1035A000CF92DF92EF92FF920F931F93CF93DF930F
:1035B00010929F0AA895E8E0F1E080818061808305
:1035C000749A808180628083759AEAE6F0E0808157
:1035D00081608083808182608083EC9A80818B7F90
:1035E0008083808188608083ED9A7894109274172C
:1035F0001092731710927217109271171092701721
:1036000010926F1710926E1710926D1710926C1720
:1036100010926B1710926A1710926917A89584E69A
:1036200070DFA8952FEF83ED90E32150804090400C
:10363000E1F700C00000A89580E063DF2FEF89E686
:1036400098E1215080409040E1F700C0000051E037
:103650002FEF3FEF01C05F5F4FEF450F4230B1F0FA
:1036600028F4442349F0413061F028C04430C1F0CF
:1036700090F04530D1F022C080917317909174176B
:10368000C2C08091711790917217BDC080916F1761
:1036900090917017B8C080916D1790916E17B3C05C
:1036A00080916B1790916C17AEC0809169179091C3
:1036B0006A1790935A178093591714C0E42FE69510
:1036C000F0E040FBEE24E0F8F12CEE0FFF1FEE0DD2
:1036D000FF1DEE0FFF1FE15BF84E31832083563054
:1036E00009F0B9CF109274171092731710927217D5
:1036F000109271171092701710926F1710926E1728
:1037000010926D1710926C1710926B1710926A1727
:1037100010926917A8958CE9F4DE2FEF83ED90E302
:10372000215080409040E1F700C00000A89591E052
:103730004FEF5FEF01C09F5F8FEF890F8230B1F0D5
:1037400028F4882349F0813061F028C08430C1F02A
:1037500090F08530D1F022C020917317309174170A
:1037600064C020917117309172175FC020916F175C
:10377000309170175AC020916D1730916E1755C057
:1037800020916B1730916C1750C080916917909100
:103790006A17909366178093651714C0E82FE69513
:1037A000F0E08170C82F20E0D22FEE0FFF1FEC0F4A
:1037B000FD1FEE0FFF1FE55AF84E518340839630F0
:1037C00009F0B9CF80E09DDEA8958FEF90E722E069
:1037D000815090402040E1F700C0000081E08093DC
:1037E0009F0AEAE6F0E080818160808380818D7F9E
:1037F0008083EC9A8081846080838081877F80834E
:10380000ED9AA89523C0E42FE695F0E040FBCC2488
:10381000C0F8D12CEE0FFF1FEC0DFD1DEE0FFF1FAA
:10382000E15BF84E9183808316CFE82FE695F0E0B8
:10383000082F017010E0EE0FFF1FE00FF11FEE0FD9
:10384000FF1FE55AF84E3183208375CFDF91CF916A
:103850001F910F91FF90EF90DF90CF9008950F93FD
:103860001F93CF93DF938C01862FEA014ADE4091AC
:103870009D0A50919E0A9801A4EDB1E00E94DD3BA3
:103880009A0140E050E00E94913B209379173093D9
:103890007A1740937B1750937C17109275171092EC
:1038A00076171092771710927817D0936817C093F5
:1038B0006717DF91CF911F910F9108951F920F927B
:1038C0000FB60F9211240BB60F922F933F934F9385
:1038D0005F936F937F938F939F93AF93BF93EF9378
:1038E000FF938091060185FF0AC080916F17909128
:1038F000701701969093701780936F1709C080918D
:10390000731790917417019690937417809373179F
:1039100080916B1790916C17019690936C17809320
:103920006B1780919F0A882309F478C020917F1734
:103930003091801780917D1790917E172817390755
:10394000E8F18091791790917A17A0917B17B09147
:103950007C17892B8A2B8B2B89F18091751790917D
:103960007617A0917717B09178170196A11DB11D18
:103970008093751790937617A0937717B093781765
:10398000409175175091761760917717709178175D
:103990008091791790917A17A0917B17B0917C173D
:1039A00084179507A607B70748F4E0916717F091C9
:1039B0006817309709F0199580E0A3DD809183178F
:1039C0009091841701969093841780938317809128
:1039D0008617882319F180914E178F5F80934E17B9
:1039E00020917F173091801790E082179307B0F0F5
:1039F00010924E1780912801909129010B9738F071
:103A0000E8E2F1E0808191810A9791838083EAE284
:103A1000F1E0808191810A9691838083FF91EF91FB
:103A2000BF91AF919F918F917F916F915F914F91D6
:103A30003F912F910F900BBE0F900FBE0F901F90D4
:103A400018951F920F920FB60F9211240BB60F927A
:103A50002F933F934F935F936F937F938F939F9396
:103A6000AF93BF93EF93FF938091691790916A177B
:103A7000019690936A17809369178091060184FFDD
:103A80000AC080916D1790916E17019690936E17F2
:103A900080936D1709C080917117909172170196EC
:103AA000909372178093711780919F0A882309F46D
:103AB00078C020917F173091801780917D17909169
:103AC0007E1728173907E8F58091791790917A17B2
:103AD000A0917B17B0917C17892B8A2B8B2B89F1B6
:103AE0008091751790917617A0917717B0917817FC
:103AF0000196A11DB11D8093751790937617A09321
:103B00007717B09378174091751750917617609199
:103B10007717709178178091791790917A17A09103
:103B20007B17B0917C1784179507A607B70748F451
:103B3000E0916717F0916817309709F0199580E0C8
:103B4000E0DC809181179091821701969093821703
:103B50008093811780918617882319F180914D17E2
:103B60008F5F80934D1720917D1730917E1790E0E5
:103B700082179307B0F010924D1780912A0190910F
:103B80002B010B9738F0EAE2F1E0808191810A97EE
:103B900091838083E8E2F1E0808191810A969183AC
:103BA0008083FF91EF91BF91AF919F918F917F9112
:103BB0006F915F914F913F912F910F900BBE0F909E
:103BC0000FBE0F901F901895CF93C82F862F57DCEC
:103BD0008C2F97DCCF910895CF92DF92FF920F93B5
:103BE0001F93CF93DF93CDB7DEB768970FB6F894E6
:103BF000DEBF0FBECDBF082F10918717111105C072
:103C000089E79FE00E94EA302CC2862F90E0FC01F9
:103C10007097E833F10508F021C28827E551FF4F7E
:103C20008F4F0C94CF3B41111BC2EFE4F7E1808131
:103C30009181A0E0B0E089839A83AB83BC838481C7
:103C40009581A0E0B0E08B839C83AD83BE838085AB
:103C50009185A0E0B0E08D839E83AF83B88720E09C
:103C600030E083E0F901EE0FFF1FEE0FFF1FE15B75
:103C7000F84E42815381E82FF0E0EE0FFF1F61E024
:103C800070E06C0F7D1FE60FF71F60E070E040836F
:103C90005183628373838F5F2F5F3F4F863011F7AD
:103CA00020E030E03AC0F901EE0FFF1FEE0FFF1FDA
:103CB000E15BF84E46855785E82FF0E0EE0FFF1FD9
:103CC00061E070E06C0F7D1FE60FF71F60E070E0B1
:103CD00040835183628373838F5F2F5F3F4F8C30AC
:103CE00011F71F9288E18F931F9286E48F9382E0F1
:103CF0008F930F930E9477038E010F5F1F4F6E010A
:103D000079E1C70ED11C0F900F900F900F900F907C
:103D10000F906894FF24F1F821C0F901EE0FFF1F06
:103D2000EE0FFF1FE55AF84E40815181E82FF0E079
:103D3000EE0FFF1F61E070E06C0F7D1FE60FF71FB5
:103D400060E070E040835183628373838F5F2F5FF5
:103D50003F4F893011F720E030E0A5CFF801819185
:103D600091918F019C0133273F932F931F929F9333
:103D7000FF921F920E9477030F900F900F900F9069
:103D80000F900F900C151D0549F711E06AC1411104
:103D90000CC01F9287E48F930F930E94490400DCAC
:103DA0000F900F900F9011E05CC1413029F4802FEB
:103DB0000E943B0411E055C1642F802F0E943A04F9
:103DC0001F9281E08F930F930E9449040F900F90F0
:103DD0000F9011E046C1423041F5802F0E943B0414
:103DE000182F802F0E943B0494E6910F993C90F489
:103DF0008C3984F0853674F4682F812FE5DE1F92AC
:103E000080E18F930F930E9449040F900F900F90C1
:103E100011E027C11F9283E08F930F930E94490402
:103E20000F900F900F9011E01CC1642F802F0E9403
:103E30003A041F9281E08F930F930E9449040F90E0
:103E40000F900F9011E00DC14130F1F4802F0E94CE
:103E50003B0494E6980F993C60F453DB1F9281E198
:103E60008F930F930E9449040F900F900F9011E0D1
:103E7000F8C01F9283E08F930F930E9449040F9024
:103E80000F900F9011E0EDC0642F802F0E943A0434
:103E90001F9281E08F930F930E9449040F900F901F
:103EA0000F9011E0DEC04130F1F4802F0E943B04FE
:103EB00094E6980F993C60F4E2DA1F9282E18F93C6
:103EC0000F930E9449040F900F900F9011E0C9C00A
:103ED0001F9283E08F930F930E9449040F900F90DD
:103EE0000F9011E0BEC0642F802F0E943A041F92F1
:103EF00081E08F930F930E9449040F900F900F90D1
:103F000011E0AFC0433041F5802F0E943B04182FD1
:103F1000802F0E943B04802F0E943B0494E6910F67
:103F2000993C78F4482F612F110F770B880B990B70
:103F30002DE539E1EFD963E1802F0E94880411E07B
:103F400090C01F9283E08F930F930E9449040F90BB
:103F50000F900F9011E085C0642F802F0E943A04CB
:103F60001F9281E08F930F930E9449040F900F904E
:103F70000F9011E076C0433031F5802F0E943B0452
:103F8000182F802F0E943B04F82E802F0E943B04A4
:103F900094E6910F993C60F490E048E659E1612F76
:103FA0009F295DDC64E1802F0E94880411E059C0E4
:103FB0001F9283E08F930F930E9449040F900F90FC
:103FC0000F9011E04EC0642F802F0E943A041F9280
:103FD00081E08F930F930E9449040F900F900F90F0
:103FE00011E03FC0423059F5802F0E943B04182F4A
:103FF000802F0E943B04212F30E0322F2227A9017D
:10400000482BCA019C01245B31092333310560F43C
:104010006AD91F9285E18F930F930E9449040F90F4
:104020000F900F9011E01DC01F9283E08F930F93AC
:104030000E9449040F900F900F9011E012C0642F5E
:10404000802F0E943A041F9281E08F930F930E9469
:1040500049040F900F900F9011E003C010E001C0D1
:1040600011E0812F68960FB6F894DEBF0FBECDBF6A
:10407000DF91CF911F910F91FF90DF90CF90089526
:104080006F927F929F92BF92CF92DF92EF92FF92B8
:104090000F931F93CF93FC0140E050E0B12C992483
:1040A00093940F2EF3E9CF2EF7E1DF2EF02D0F2E94
:1040B000F4E9EF2EF7E1FF2EF02D05E917E10F2EC1
:1040C000F2E96F2EF7E17F2EF02D8091911790E0AD
:1040D000042E02C0959587950A94E2F780FF1EC0D2
:1040E00020813181ADECBCEC0E94DD3B9C0136951A
:1040F00027953695279536952795922F413031F0A3
:1041000040F1423041F1433019F008C0D60124C0DB
:10411000D30122C0963010F02C93B92C4F5F5F4F23
:1041200032964430510589F6E0918D17F0918E1743
:10413000309719F082E997E11995BB2089F0E09159
:104140008B17F0918C17309759F082E997E1199508
:1041500007C0D70101C0D8018C919813DBCFDECF07
:10416000CF911F910F91FF90EF90DF90CF90BF9074
:104170009F907F906F9008958091911720E430E296
:1041800045E062E071E00E94EB0580918917909113
:104190008A17089580918F17811112C081E0809352
:1041A0008F17E1E0F1E0808180628083E7E0F1E059
:1041B0008081807F8083E8E0F1E08081807F808360
:1041C000089580918F17811105C081EA9FE00C94BA
:1041D000EA30089580919017882331F080919017EC
:1041E0000E94902F1092901708950F931F93CF93D2
:1041F000C82F8B0180918F17811105C087ED9FE03B
:104200000E94EA3016C0DDDF10938E1700938D17E1
:1042100010928C1710928B17C093911781E08093A6
:10422000881720E430E245E062E071E08C2F0E94C4
:10423000EB05CF911F910F910895CF93DF93EB0181
:1042400090918F17911105C08BE090E10E94EA30A8
:1042500026C0982F9F7029F482E490E10E94EA30F2
:104260001EC08093911710928E1710928D17509345
:104270008C1740938B1770938A1760938917A1DF6F
:10428000BE018CEB90E20E94162F809390178091D4
:104290009017811104C089E790E10E94EA30DF9114
:1042A000CF9108958091A00A8823E1F020E030E0CA
:1042B00041E051E0249FC001259F900D349F900D57
:1042C00011248A56984EFC01E250FF4F108231961D
:1042D0001082319610822F5F3F4F2430310551F705
:1042E0001092A00A0895CF93DF93D82FC62FDADF5C
:1042F000C43008F04DC06C2F70E021E031E0629FC7
:10430000C001639F900D729F900D11248A56984EA4
:10431000FC01E250FF4F20813196808128130EC0AE
:1043200081E091E0689FF001699FF00D789FF00DAA
:104330001124EA56F74E808181112CC021E031E032
:10434000629FC001639F900D729F900D11248A5649
:10435000984EFC01F39520812F5F208332972081B6
:1043600031E0320F3083DC01A20FB11DDC9380817C
:104370008E3F91F481E091E0689FF001699FF00D1C
:10438000789FF00D1124EC56F74E108281E005C0A5
:1043900080E003C080E001C081E0DF91CF9108950B
:1043A000CF93C82F7FDFC43058F481E091E0C89FDD
:1043B000F001C99FF00D1124EA56F74E808101C02B
:1043C00080E0CF9108950F931F93CF93DF938C01DB
:1043D000C62FD42F403219F04430E0F501C0D0E0B0
:1043E0008D2FDEDF8C17C0F14D2F50E081E091E082
:1043F000489FF001499FF00D589FF00D1124EB5696
:10440000F74E2081CC2351F1F801C1506C2F70E0A0
:104410006F5F7F4F600F711F30E0A1E0B1E04A9FF6
:10442000C0014B9F900D5A9F900D1124AC014A562C
:10443000584E2E3F11F4932F01C0922F21E0290FE7
:10444000DA01A90FB11D8C918193E617F70789F75F
:1044500081E005C080E003C080E001C081E0DF9121
:10446000CF911F910F910895CF93DF93C82FD62F2F
:1044700019DFD43008F042C06D2F70E081E091E088
:10448000689FF001699FF00D789FF00D1124EA56A6
:10449000F74E80818C17A0F1CC23A1F181E091E04F
:1044A000689FF001699FF00D789FF00D1124EA5686
:1044B000F74E8081882341F190E021E031E0629F56
:1044C000F001639FF00D729FF00D1124EA56F84E33
:1044D000DF01A150BF4FF3958C918F5F8C9380814A
:1044E000815080838C918E3F09F41C929F5FC91785
:1044F00069F080818111F0CF81E009C080E007C0C0
:1045000080E005C081E003C081E001C081E0DF916F
:10451000CF91089521E031E0482F429FC001439F91
:10452000900D11248A56984EFC01E250FF4F1082E4
:1045300031961082319610820895FC0190919A1C58
:10454000923069F018F4913031F00895943059F0B8
:10455000983069F0089582818093361D0895818195
:104560008093371D089583818093381D089580813D
:104570008093391D089590919E1C943019F09530C8
:1045800061F013C095E090939E1C809580939B1CD6
:1045900065E081E088D781E00895809580939C1C38
:1045A00081E080939D1C80E0089580E00895309123
:1045B0009A1B832F90E08C30910508F056C0FC01C7
:1045C0008827ED5DFE4F8F4F0C94CF3B2FEF4FEFC1
:1045D0006FEF80E00E94DB1048C02FEF4FEF6FEFCE
:1045E000832F0E94DB1080919A1B20E040E060E066
:1045F00081500E94DB1039C020E040E060E083E0A1
:104600000E94DB1080919A1B2FEF4FEF6FEF8D5FB1
:104610000E94DB1080919A1B20E040E060E08E5FFA
:104620000E94DB1022C020E040E060E08AE00E94AF
:10463000DB1090919A1B2FEF4FEF6FEF8EE0891BED
:104640000E94DB1090919A1B20E040E060E08FE038
:10465000891B0E94DB1009C020E040E060E084E09C
:104660000E94DB1080E090E0089580919A1B8F5F9C
:1046700080939A1B86E990E00895E2E0F1E0808162
:10468000877F8083E1E0F1E080818860808307C7D5
:10469000089584E080939E1C10929D1CE2E0F1E05E
:1046A00080818860808364E081E0FDD68BEB92E2BC
:1046B00029D780919D1C8823E1F3E2E0F1E080811D
:1046C000877F80830895CF93DF93C82F6333D1F51D
:1046D000413071F0642F0E943A041F9281E08F9361
:1046E000CF930E9449040F900F900F9081E072C009
:1046F0000E943B04D82F823061F018F4813031F0F1
:1047000010C0843049F0883051F00BC01092361D33
:1047100008C01092371D05C01092381D02C01092BB
:10472000391DD0939A1C1F9283E38F93CF930E94DD
:1047300049046DE972E28D2F58DD0F900F900F90B4
:1047400081E048C0643309F044C04130A1F50E94C3
:104750003B04823061F018F4813031F011C08430B4
:1047600049F0883051F00CC08091361D14C0809102
:10477000371D11C08091381D0EC08091391D0BC0AE
:104780001F9283E08F93CF930E9449040F900F9064
:104790000F9081E01FC01F928F9381E08F9384E37D
:1047A0008F93CF930E9449040F900F900F900F901A
:1047B0000F9081E00FC0642F0E943A041F9281E0A5
:1047C0008F93CF930E9449040F900F900F9081E038
:1047D00001C080E0DF91CF910895CF93683459F5FF
:1047E000642FC82F41111AC054DFEBE9FCE191811D
:1047F00080811F929F931F928F9382E08F9388E412
:104800008F93CF930E9449048DB79EB707960FB63A
:10481000F8949EBF0FBE8DBF81E00EC00E943A0487
:104820001F9281E08F93CF930E9449040F900F90C5
:104830000F9081E001C080E0CF9108951F93CF9346
:10484000DF936233A1F5642FC82F411123C080E1AB
:104850000E943107D82F80E20E943107182F80E490
:104860000E943107110F24E0829FC0011124212FE3
:10487000282BD22B1F92DF9381E08F9382E38F93BB
:10488000CF930E9449040F900F900F900F900F90BC
:1048900081E00EC00E943A041F9281E08F93CF9373
:1048A0000E9449040F900F900F9081E001C080E0BA
:1048B000DF91CF911F910895AF92BF92DF92EF9257
:1048C000FF920F931F93CF93DF93CDB7DEB71D8574
:1048D000DE847E018FE0E80EF11CDD2079F100E03E
:1048E000113081F028F01230B9F01330E9F026C011
:1048F000570192E0A90EB11CF70180810E94CC30D3
:10490000750119C05701F2E0AF0EB11CF7018081AB
:104910000E94723175010FC0F7018081F2E0EF0E45
:10492000F11C0E94EE3107C0F701808192E0E90E90
:10493000F11C0E9469320F5FD012D2CFDF91CF916C
:104940001F910F91FF90EF90DF90BF90AF9008956F
:10495000FF920F931F93CF93DF93683109F06CC0E0
:10496000142FD82F411157C0ABE9BBE10D900020A7
:10497000E9F71197AB59BB41A430B10549F0A556F1
:10498000B44E85E0ECEBF0E101900D928A95E1F7F1
:10499000EBE9FBE101900020E9F73197EB59FB418E
:1049A000FF93EF931F9288E18F9382E08F93DF93C1
:1049B00083DF0F900F900F900F900F900F90C0E03B
:1049C0000BE91BE1FF24F3940FC0EC2FF0E0E55658
:1049D000F44E80811F928F93FF92DF936DDFCF5F44
:1049E0000F900F900F900F90F80101900020E9F7C1
:1049F0003197EB59FB412C2F30E02E173F0729F759
:104A000085E0ECEBF0E1ABE9BBE101900D928A951A
:104A1000E1F781E012C088E10E94CC3080E00E9482
:104A2000CC30C0E08D2F0E943B040E94EE31CF5F5E
:104A30001C13F8CF81E001C080E0DF91CF911F917E
:104A40000F91FF900895EF92FF920F931F93CF93D2
:104A5000DF93C82F162FD42F673061F4642F0E9484
:104A60003A041F921F92CF930E9449040F900F9017
:104A70000F900EC1623209F049C04230F1F40E9439
:104A80003B04D82F8C2F0E943B042D2F30E0322F77
:104A90002227A901480F511DCA01E7D59F938F9383
:104AA00081E08F9382E28F93CF930E9449040F900D
:104AB0000F900F900F900F90EBC04330E9F40E94DD
:104AC0003B04D82F8C2F0E943B04182F8C2F0E9460
:104AD0003B04682F70E08D2F90E0982F8827810F7E
:104AE000911DBBD51F9282E28F93CF930E94490400
:104AF0000F900F900F90CCC01F9283E08F93CF93B5
:104B00000E9449040F900F900F90C2C0693109F0C4
:104B100041C0413051F01F9283E08F93CF930E94A8
:104B200049040F900F900F90B3C00E943B04D82F00
:104B3000813081F40F2EFCE2EF2EFF24F394F02D50
:104B400008EE28EE40E855E260E070E082E00E9466
:104B5000C30311C0811105C082E090E00E942804C7
:104B60000AC01F9283E08F93CF930E9449040F9055
:104B70000F900F908DC01F92DF9381E08F9389E19A
:104B80008F93CF930E9449040F900F900F900F9036
:104B90000F907EC0DDDE81117BC0183029F468EEF5
:104BA0008C2F0E943A0474C01731E9F41F9287E1F8
:104BB0008F93CF930E9449045FEF80E792E05150BA
:104BC00080409040E1F700C0000098E088E10FB617
:104BD000F894A895809360000FBE909360000F90AA
:104BE0000F900F90FFCF4D2F612F8C2F6CDD811117
:104BF0004FC04D2F612F8C2FF0DD811149C04D2FFB
:104C0000612F8C2F1BDE811143C04D2F612F8C2F04
:104C10000E94F71081113CC04D2F612F8C2F0E94F4
:104C2000B238811135C04D2F612F8C2F0E9477171C
:104C300081112EC04D2F612F8C2F0E94EC1D8111F0
:104C400027C04D2F612F8C2F0E947C36811120C0F0
:104C50004D2F612F8C2F94D281111AC04D2F612FAF
:104C60008C2F0E947734811113C04D2F612F8C2F10
:104C70000E94930D81110CC06D2F8C2F0E943A045D
:104C80001F921F92CF930E9449040F900F900F9094
:104C9000DF91CF911F910F91FF90EF900895CF93E7
:104CA000DF931F921F92CDB7DEB719821A828091CF
:104CB000D6008983BE016F5F7F4F8BE99BE10E9425
:104CC0001D3D0F900F90DF91CF910895CF93DF930B
:104CD00000D01F92CDB7DEB785E0ECEBF0E1ABE999
:104CE000BBE101900D928A95E1F760E87AE186E0F8
:104CF00090E0C2D46CE389E190E076D783E295E25C
:104D00000E9432050F2EFCE2EF2EFF24F394F02DCB
:104D100008EE28EE40E855E260E070E080E00E9496
:104D2000C30328EE40E855E260E070E082E00E94B4
:104D3000C30320E042E060E875E280E090E00E947A
:104D40007A31E2EDF0E0808188608083E1EDF0E08F
:104D5000808180688083FAD60E94711020E040E054
:104D600060E080E00E94DB100E9430370E94D21683
:104D70000E948A0837D0CE0101960E94FC350E941D
:104D8000DD190E94C6330E94050777DC66E970E0F2
:104D900087ED92E20E94162F9FE088E10FB6F8940B
:104DA000A895809360000FBE90936000A895FECFF9
:104DB0001F926F931F927F931F928F931F929F93C7
:104DC0001F9281E08F9385E08F9386E38F930E94FB
:104DD0009D048DB79EB70C960FB6F8949EBF0FBE7C
:104DE0008DBF08950F931F93CF93DF938091C21CC3
:104DF000811166C081E08093C21C80E092E09093B4
:104E0000C11C8093C01C67E082E290E0BAD480911C
:104E1000C01C9091C11C29D48093BF1CCFE9DCE158
:104E200000E010E08091C01C9091C11C0196800FA1
:104E3000911F1BD490E0A0E0B0E0B82FAA279927DB
:104E4000882788839983AA83BB838091C01C909113
:104E5000C11C0296800F911F08D4488159816A8134
:104E60007B81682B488359836A837B838091C01C34
:104E70009091C11C0396800F911FF7D348815981EF
:104E80006A817B81582B488359836A837B83809115
:104E9000C01C9091C11C0496800F911FE6D34881DD
:104EA00059816A817B81482B4993599369937993FE
:104EB0000C5F1F4F0032110509F0B4CFF3D501C0CC
:104EC00080E0DF91CF911F910F9108958091C21CD6
:104ED000811105C081EC90E10C94EA300895809135
:104EE000CB1C882331F08091CB1C0E94902F109214
:104EF000CB1C08950F931F93CF938C01C091C21CBC
:104F0000C11105C086EF90E10E94EA300DC096D530
:104F1000811104C093D5C82F882331F0C801CFD5A3
:104F2000C1E0811101C0C0E08C2FCF911F910F9182
:104F300008950F931F93CF93DF9300D01F92CDB7A7
:104F4000DEB7CE010196D6DF8823F9F069817A8138
:104F50008B819C810091C31C1091C41C2091C51CA5
:104F60003091C61C0617170728073907B1F0609360
:104F7000C31C7093C41C8093C51C9093C61CE09105
:104F8000C91CF091CA1C199508C01092C31C10923C
:104F9000C41C1092C51C1092C61C8091C71C909115
:104FA000C81C0F900F900F900F90DF91CF911F9121
:104FB0000F9108958091C21C811105C08AE191E191
:104FC0000C94EA3008951092BF1C60E08091C01CE0
:104FD0009091C11C42C308950F931F938B019C01B4
:104FE0009091BF1C992311F140919F1C5091A01CDE
:104FF0006091A11C7091A21C0417150726073707A2
:1050000069F40AC041915191619171914017510722
:105010006207730731F40BC080E009C0E3EAFCE1EA
:1050200080E08F5F8913EECF8FEF01C08FEF1F916C
:105030000F910895CF92DF92EF92FF92CF936B0181
:105040007C018091C21C811106C087E491E10E941D
:10505000EA308FEF6AC0C091BF1CC83008F062C050
:10506000C701B601B9DF88230CF05EC02C2F30E0F9
:10507000220F331F220F331FF901E156F34EC08276
:10508000D182E282F3826F2D77278827992740917A
:10509000C01C5091C11C4F5F5F4FCA01820F931F0C
:1050A000DCD2B701882799272091BF1C4091C01CF2
:1050B0005091C11C4E5F5F4FCA0134E0239F800DA9
:1050C000911D1124CAD299278F2D7E2D6D2D2091EF
:1050D000BF1C4091C01C5091C11C4D5F5F4FCA0165
:1050E00034E0239F800D911D1124B7D22091BF1C65
:1050F0008091C01C9091C11C04966C2D34E0239FBC
:10510000800D911D1124A9D26091BF1C6F5F609327
:10511000BF1C8091C01C9091C11C9FD28091BF1C6C
:10512000815003C08FEF01C08FEFCF91FF90EF90C0
:10513000DF90CF9008959C019091C21C911105C001
:1051400081E791E10C94EA3008957093CA1C609352
:10515000C91C3093C81C2093C71CB8DE6091C71CC3
:105160007091C81C89E997E261D68093CB1C80912D
:10517000CB1C811104C087EA91E10C94EA300895B8
:10518000CF92DF92EF92FF920F931F93CF93DF9313
:1051900000D01F92CDB7DEB7082F1091C21C11119D
:1051A00005C088EE91E10E94EA305EC1673309F4E0
:1051B0008EC030F4653359F0663309F441C053C1F1
:1051C000683309F4AFC0693309F40BC14CC1411114
:1051D00029C0CE0101968EDE8823C9F039812A814B
:1051E0009B818C811F923F931F922F931F929F93BD
:1051F0001F928F9384E08F9385E38F930F930E9488
:1052000049040FB6F894DEBF0FBECDBF09C01F9290
:1052100085E38F930F930E9449040F900F900F9096
:1052200011E022C1642F0E943A041F9281E08F9303
:105230000F930E9449040F900F900F9011E014C13A
:105240004230B9F50E943B04E82E802F0E943B04B7
:105250008E29E82EF12C3ADEE114F10471F486E394
:105260000E94FE041F9286E08F930F930E944904D0
:105270000F900F900F9011E0F7C025D5BC01C7012A
:105280000E946A3B892B59F01F9283E08F930F9302
:105290000E9449040F900F900F9011E0E5C066E363
:1052A000802F0E94880468ED76E2C70144DF11E098
:1052B000DBC0642F0E943A041F9281E08F930F930A
:1052C0000E9449040F900F900F9011E0CDC0413023
:1052D000D9F40E943B04863A59F01F9283E08F93E1
:1052E0000F930E9449040F900F900F9011E0BCC0E3
:1052F00061DE1F9287E38F930F930E9449040F9002
:105300000F900F9011E0B0C0642F0E943A041F92DA
:1053100081E08F930F930E9449040F900F900F909C
:1053200011E0A2C0453009F04EC00E943B04182F86
:10533000802F0E943B04D82E802F0E943B04F82E21
:10534000802F0E943B04E82E802F0E943B04282FD0
:10535000163A59F01F9283E08F930F930E944904ED
:105360000F900F900F9011E07FC08F2D90E0A0E084
:10537000B0E0DC0199278827BD29822BBC01CD0133
:105380007E2958DE8823A4F0282F082E000C330B2A
:105390003F938F9381E08F9388E38F930F930E94C5
:1053A00049040F900F900F900F900F9011E05CC088
:1053B0001F9282E08F930F930E9449040F900F90E9
:1053C0000F9011E051C0642F0E943A041F9281E0B7
:1053D0008F930F930E9449040F900F900F9011E04C
:1053E00043C0443091F50E943B04C82ED12CE12CDF
:1053F000F12CFC2CEE24DD24CC24802F0E943B04D5
:10540000E82A802F0E943B04182F802F0E943B0423
:10541000A7019601282BDA01C901BC01CD01712B2E
:10542000DBDD282F082E000C330B3F938F9381E098
:105430008F9389E38F930F930E9449040F900F90ED
:105440000F900F900F9011E00FC0642F0E943A044C
:105450001F9281E08F930F930E9449040F900F9049
:105460000F9011E001C010E0812F0F900F900F906E
:105470000F90DF91CF911F910F91FF90EF90DF90F0
:10548000CF900895CF93C091CC1CC11104C084E18A
:1054900092E1A0D601C0C1E08C2FCF91089581E0A8
:1054A0008093CC1C0895CF93DF93C82FD62FEADFCB
:1054B000882329F1ECE7F0E08081282F2F7330E476
:1054C000C39FC0011124822B8083D83050F4808187
:1054D000807ED82BD083EBE7F0E08081877F8083CC
:1054E0000EC0D03160F4ECE7F0E08081807ED850CF
:1054F000D82BD083EBE7F0E0808188608083DF9158
:10550000CF910895CF93DF93EC01BCDF8823E9F0BE
:10551000ECE7F0E0808180628083EAE7F0E08FE8EA
:1055200080831092D01C1092CF1C1092CE1C10922F
:10553000CD1CD093D41CC093D31C1092D21C1092BB
:10554000D11C8081806480837894DF91CF9108950D
:10555000CF93DF93EC0196DF8823E9F0ECE7F0E0EE
:1055600080818F7D8083EAE7F0E08FE8808310926E
:10557000D01C1092CF1C1092CE1C1092CD1C1092F9
:10558000D41C1092D31CD093D21CC093D11C808108
:10559000806480837894DF91CF9108951F920F9259
:1055A0000FB60F9211240BB60F922F933F934F9388
:1055B0005F936F937F938F939F93AF93BF93EF937B
:1055C000FF93E091D31CF091D41C309721F080918F
:1055D0007900199501C080E0E091D11CF091D21CB6
:1055E000309729F080917800909179001995E09199
:1055F000CF1CF091D01C309721F080917900199543
:1056000019C0E091CD1CF091CE1C309731F0809103
:1056100078009091790019950DC0882331F0EAE760
:10562000F0E080818064808305C0EAE7F0E080815B
:105630008F778083FF91EF91BF91AF919F918F9171
:105640007F916F915F914F913F912F910F900BBE82
:105650000F900FBE0F901F901895F999FECF92BD35
:1056600081BD60BDFA9AF99A0895F999FECF92BD6D
:1056700081BDF89A80B508959B01AC0181E08093CB
:10568000D51CECEBF0E080818B7F80831092B90019
:1056900060E074E284EF90E00E94913BDA01C9017E
:1056A0004097A109B109B695A795979587958093DD
:1056B000B8002FEF80E792E0215080409040E1F762
:1056C00000C0000008951F93CF93DF93162FE09141
:1056D0003B1DF0913C1D2081C1E0D0E0AE01009067
:1056E0003A1D02C0440F551F0A94E2F7942F90957B
:1056F00092239083880F8E7754D2812F52D2E091DB
:105700003B1DF0913C1D808100903A1D02C0CC0FE2
:10571000DD1F0A94E2F7C82BC083DF91CF911F9160
:105720000895CF93DF93E0913B1DF0913C1D2081C4
:10573000C1E0D0E0AE0100903A1D02C0440F551FF9
:105740000A94E2F7942F909592239083880F8E7796
:10575000806827D280E025D2E0913B1DF0913C1D6E
:10576000908100903A1D02C0CC0FDD1F0A94E2F731
:10577000C92BC083DF91CF9108956FE081E0A3CF63
:10578000089590933C1D80933B1D60933A1DFC014E
:10579000708121E030E0A90102C0440F551F6A95D5
:1057A000E2F7472B4083E0913B1DF0913C1D829135
:1057B00000903A1D02C0220F331F0A94E2F7282BF3
:1057C0002083E6D1811101C0C1D1D7DF6DE88AE223
:1057D0007ADF6EE38BE277DF6EE18CE274DF60E00C
:1057E0008DE271DF60E485E16EDF6DE381E16BDF07
:1057F00068E786E268DF6FE782E065DF84E191DFDA
:10580000982F937021F4682F636084E15CCF089532
:105810003F924F925F926F927F928F929F92AF9240
:10582000BF92CF92DF92EF92FF920F931F93CF938D
:10583000DF93982EF62EE72E442E822E332E58011B
:105840008CE0981609F4BAC0EEE09E1203C010E195
:1058500002E102C010E000E084E063DF682F6F77B0
:1058600084E031DF8AE05DDF682F60688AE02BDF4B
:1058700060E081E028DF512C612C712C411451042F
:105880006104710419F414C010E307E7CF2DDE2D75
:10589000C12CD12C7601699189E015DFFFEFCF1A79
:1058A000DF0AEF0AFF0AC414D504E604F70498F3EC
:1058B000692D81E008DF8CE0981206C08DE031DFB1
:1058C000682F60688DE0FFDE84E02BDFF82EC0E0FB
:1058D000D0E0116009C084E024DFF82E2196CF3C8F
:1058E000E7E0DE0709F483C0812F8F21A1F387C091
:1058F0000170F02211F0C2E001C0C1E0FCE09F1293
:105900008AC08AE00EDF482E8CE00BDF282F27703C
:10591000A9F0842D90E00197880F991F880F991F97
:10592000880F991F820F911D092E000CAA0BBB0B2B
:10593000F50180839183A283B38311C0842D90E00D
:10594000880F991F880F991F880F991F092E000C27
:10595000AA0BBB0BF50180839183A283B383442000
:1059600071F0842D813108F080E1482E512C612C9A
:10597000712C411451046104710429F44CC0412C70
:10598000512C32014394082D132DC12CD12C7601BA
:1059900089E0C7DEF80181938F01FFEFCF1ADF0A9C
:1059A000EF0AFF0AC414D504E604F70488F333C0F1
:1059B0006CE081E088DE10E307E780CF84E0B1DEB1
:1059C000682F6F7784E07FDE8AE0ABDE682F606847
:1059D0008AE079DE60E081E076DE512C612C712C6A
:1059E000411451046104710409F04ECFE1CF8DE000
:1059F00098DE682F6F778DE066DEC3E00CC08DE027
:105A000090DE682F6F778DE05EDE86E08ADE8B7138
:105A100009F46ECFC3E08C2FDF91CF911F910F91CE
:105A2000FF90EF90DF90CF90BF90AF909F908F90BE
:105A30007F906F905F904F903F9008950F931F93CA
:105A4000CF93DF93CDB7DEB764970FB6F894DEBF80
:105A50000FBECDBF67E08DE036DE82E58D838E011F
:105A60000F5F1F4F9E012B5F3F4F41E0B9018CE05C
:105A7000CFDE813059F449815A816B817C8140317C
:105A800051056105710519F080E001C080E0649660
:105A90000FB6F894DEBF0FBECDBFDF91CF911F913F
:105AA0000F91089587E33DDE883829F090E7980F3D
:105AB000933018F4089588E8089580E00895EF92EF
:105AC000FF920F931F93CF93DF93CDB7DEB7649709
:105AD0000FB6F894DEBF0FBECDBF7C0160E08DE055
